{
  "contractName": "pepeToken",
  "abi": [
    {
      "constant": true,
      "inputs": [],
      "name": "totalSupply",
      "outputs": [
        {
          "name": "",
          "type": "uint256"
        }
      ],
      "payable": false,
      "stateMutability": "view",
      "type": "function"
    },
    {
      "inputs": [],
      "payable": false,
      "stateMutability": "nonpayable",
      "type": "constructor"
    }
  ],
  "bytecode": "0x6080604052348015600f57600080fd5b50612328600081905550609e806100276000396000f300608060405260043610603f576000357c0100000000000000000000000000000000000000000000000000000000900463ffffffff16806318160ddd146044575b600080fd5b348015604f57600080fd5b506056606c565b6040518082815260200191505060405180910390f35b600054815600a165627a7a723058209b91f74c84177400fe26927da22dcc95a1fdc3526889dcaa20ba945e9694d9410029",
  "source": "pragma solidity ^0.4.23;\n\ncontract pepeToken{\n\n    uint256 public totalSupply;\n\n    //Apprently, just by having this public variabl;e, the get function is implicitly created\n\n    constructor() public {\n        totalSupply = 9000;\n    }\n\n\n}",
  "sourcePath": "/home/rdo/erc20-token/token/contracts/pepeToken.sol",
  "compiler": {
    "name": "solc",
    "version": "0.4.24+commit.e67f0147.Emscripten.clang"
  },
  "schemaVersion": "2.0.1",
  "updatedAt": "2018-11-16T19:55:22.364Z"
}